00011006 ALLIANZ LEBENSVERS. AG        ACENCIA GmbH                  0210202508122025401011021 2.32.22.42.62.52.32.32.3   1.61.71.82.31.82.01.71.61.51.41.41.51.61.51.41.41.41.51.41.41.51.31.61.3                           1.61.1         1240401.3          1
00011006 ALLIANZ LEBENSVERS. AG        ACENCIA GmbH                  0210202508122025401011021 1.11.01.01.01.0      1.11.21.21.01.01.11.11.11.11.11.11.21.11.11.11.11.11.11.1                                                                                  2
00011006 ALLIANZ LEBENSVERS. AG        ACENCIA GmbH                  0210202508122025401011021    1.0      1.0                     1.01.0   1.0                                                                                                                3
01001006  010     00033532557801401011021 0Centara GmbH                                                                                                  D  50858 Köln                     Fichtenstr.28                         00000000   01                 1
01001006  010     00033532557801401011021 2Lay                                                         Yvonne                                            D  50374 Erftstadt                Krokusweg 27                          22111989   09                21
01001006  010     00033532557801401011021 0Centara GmbH                                                                                                  D  50858 Köln                     Fichtenstr.28                         00000000   03                 1
01001006  010     00033532557801401011021         246069486                                                                                                                                                                                         3    0000002
01001006  010     00033532557801401011021                                                                                                                                                                                                                      3
01001006  010     00033532557801401011021                                                                                                                                                                                                                      4
01001006  010     00033532557801401011021                                                                                                       00000010                                                                             00000000                  5
02001006  010     00033532557801401011021 201102018011020560000000094380101202400        00000000 00000         EUR000000000000                              1        246069486                   31000026092018       16182297662                    0        1
02001006  010     00033532557801401011021                        00000000000000000033 532 557 8                                      000002609201802102018                                                                                                     2
02101006  010     00033532557801401011021  EUR 000000000000000 0                                                            00000 00000   00000000000000000000100000000000000000000000000000000 00000000                                                       1
02101006  010     00033532557801401011021 210000000000                                    000000AZ Privat-Rente     2210                                                                                                       000000000                       2
02201006  010     00033532557801401011021                  0 Lay                           Yvonne                        221119892000                              100000000                                  000000009900000000                01082019       1
02201006  010     00033532557801401011021                  910110201801102056010120240381000000000000RFKU1U.GD           4901102019  00000 00000000000000000000000000000000000000000000000011020562100000000000000000000000000000000000000000000000  067290    1
02201006  010     00033532557801401011021                  91000000000000000000000000000000000008                               00000000                               000000000000000000000000000000000000000000000000000000000000000000000000000000000       2
02201006  010     00033532557801401011021                  91                                                                 0000000000000000000000002586000000000022960000000000000000000000000000                              00000000650000               3
02201006  010     00033532557801401011021                  91 0000000000000000000000000000000000000000000000000000000000000720240000000000000000000                                                                                                            4
01001006  010     00033551933701401011021 0Autoservice Klaus Stehling    UG                                                                              D  50226 Frechen                  Dr.-G.-Cremer-Allee 18                00000000   01                 1
01001006  010     00033551933701401011021 1Maibach                                                     Andrej                                            D  50226 Frechen                  Minzestr.40                           09121976   09                11
01001006  010     00033551933701401011021 0Autoservice Klaus Stehling    UG                                                                              D  50226 Frechen                  Dr.-G.-Cremer-Allee 18                00000000   03                 1
01001006  010     00033551933701401011021         246065461                                                                                                                                                                                         1    0000002
01001006  010     00033551933701401011021                                                                                                                                                                                                                      3
01001006  010     00033551933701401011021                                                                                                                                                 COLSDE33XXX           DE62370501981931170359                         4
01001006  010     00033551933701401011021                                                                                                       00000010                                                                             00000000                  5
02001006  010     00033551933701401011021 201012019010120390101202684380101202400        00000000 00000         EUR000000002000                              1        246065461                   13000013122018       16216046192                    0        1
02001006  010     00033551933701401011021                        00000000000000200033 551 933 7                                      000001312201815012019                                                                                                     2
02101006  010     00033551933701401011021  EUR 000000000000000 0                                                            00000 00000   00000000000000000000100000000000000000000000000000000 00000000                                                       1
02101006  010     00033551933701401011021 210106201600                                    000000AZ Privat-Rente     2210                                                                                                       000000000                       2
02201006  010     00033551933701401011021                  0 Maibach                       Andrej                        091219761000                              100000000                                  010620169900000000                01012022       1
02201006  010     00033551933701401011021                  910101201901012039010120240201000000002000RFKU1U.GD           4901012020  00000 00000000000000000000000000000000000000000000000010120392100000000000000000000000000000000000000000000000  062420    1
02201006  010     00033551933701401011021                  91000000000000000000020000000000000008                               00000000                               000000000000000000000000000000000000000000000000000000000000000000000000000000000       2
02201006  010     00033551933701401011021                  91                                                                 0000000000000000000000002419000000000024190000000000000000000000000000                              00000000470000               3
02201006  010     00033551933701401011021                  91 0000000000000000000000000000000000000000000000000000000000000720240000000000000000000                                                                                                            4
01001006  010     00037937592701401011021 1Metten                                                      Michael                       Dr.                 D  51467 Bergisch Gladbach        Romaneyer Höhe 12                     08111980   01                11
01001006  010     00037937592701401011021 1Metten                                                      Michael                       Dr.                 D  51467 Bergisch Gladbach        Romaneyer Höhe 12                     08111980   09                11
01001006  010     00037937592701401011021 3Metten Stein U.Design         GmbH und Co.KG                z.H. Personalabteilung -Ve                        D  51491 Overath                  Hammermühle 24                        00000000   03                 1
01001006  010     00037937592701401011021         242211870                                                                                                                                                                                         1    0000002
01001006  010     00037937592701401011021                                                                                                                                                                                                                      3
01001006  010     00037937592701401011021                                                                                                                                                 COKSDE33XXX           DE92370502990325006666                         4
01001006  010     00037937592701401011021                                                                                                       00000010                                                                             00000000                  5
02001006  010     00037937592701401011021 201062011011220470106202611  0000000000        00000000 00000         EUR000003605560                              1        242211870                   22000008082011                                      0        1
02001006  010     00037937592701401011021                        00000000000388938737 937 592 7                                      000000808201102012012                                                                                                     2
02101006  010     00037937592701401011021  EUR 000000000000000 0                                                            00000 00000   00000000000000000000100000000000000000000000000000000 00000000                                                       1
02101006  010     00037937592701401011021  10000000000                                    000000AZ Privat-Rente     0400                                                                                                       000000000                       2
02201006  010     00037937592701401011021                  0 Metten                        Michael                       081119801000                              117091989                                  000000009900000000                00000000       1
02201006  010     00037937592701401011021                  41010620110112204701122025037400000037017200000031094418  0020019000000000000000000000000000006730000000124700000000000000000000000000000000000000112204700000000000000000000000000                 1
02201006  010     00037937592701401011021                  41BB                                                          00000000000000000000                              000000000000000000000000000000000000                                                2
02201006  010     00037937592701401011021                  42010620110000000001122025037400000057209900000048056318  0020019000000000000000000000465013206730003000124710000046501320000000000000000000000000112204700000000000000000000000000                 1
02201006  010     00037937592701401011021                  42BR                                                          00000000000000000000                              000000000000000000000000000000000000                                                2
02201006  010     00037937592701401011021                  210106201101122047011220250374000002810760STR1M.TB.TR.WF(U)   1801122011  00200190000000000000000000000000000000000000000011220470500000060786000014319259999900000000000000000 1067300 00000000    1
02201006  010     00037937592701401011021                  21000000000000000026793590000000000008                               170919892                              00000000000000000000                              010920210000000000000000000000000001  2
02201006  010     00037937592701401011021                  21                                   0000000607860000000000000000 00000000000000000000000000000000000000000000000000000000000012202500000000000000                                                  3
01001006  010    AL 161822976601401011021 3Carentis GmbH                                                                                                 D  53332 Bornheim                 Rheindorfer-Burg-Weg 39               00000000   01                01
01001006  010    AL 161822976601401011021 00000000303328481                                                                                                                                                                                         29   0000002
01001006  010    AL 161822976601401011021                                                                                                                                                                                           99                         3
01001006  010    AL 161822976601401011021                                                                                                                                                                                                                      4
01001006  010    AL 161822976601401011021                                                                                                       00000000                                                                             00000000                  5
01001006  010    AL 161822976601401011021 2Lay                                                         Yvonne                                            D  50374 Erftstadt                Krokusweg 27                          22111989D  09                21
01001006  010    AL 161822976601401011021 00000000172555626                                                                                                                                                                                         29   0000002
01001006  010    AL 161822976601401011021                                                                                                                                                                                           01                         3
01001006  010    AL 161822976601401011021                                                                                                                                                                                                                      4
01001006  010    AL 161822976601401011021                                                                                                       00000000                                                                             00000000                  5
02001006  010    AL 161822976601401011021 201102018011020560110202681  0000000000        00000000100000         EUR000000026000                             F100000000303328481                   31000026092018     0003353255781                 EUR0        1
02001006  010    AL 161822976601401011021                   LE   000000000000026000AL-1618229766                                     000000000000002102018                                                                                                     2
02101006  010    AL 161822976601401011021  EUR 000000000000000 0                                                            00000 00000   00000000000000000000100000000000000000000000000000000 00000000                                                       1
02101006  010    AL 161822976601401011021 310000000000                                    000000AZ Privat-Rente     251                                                                                                        00000000                        2
02201006  010    AL 161822976601401011021                  0 Lay                           Yvonne                        221119892000                              100000000                                  000000009900000000                00000000       1
02201006  010    AL 161822976601401011021                  910110201801102056010820240384000000026000RFKU1U.GD           1906122025  00000  0000000000000000000000983088012026000000000000011020562100000003699480000106860000000000000000000000000  06729 0   1
02201006  010    AL 161822976601401011021                  910000000000000000002600000000000000081                              00000000                               000000000000000000000000000000000000000000000000000000000000000000000000000000000       2
02201006  010    AL 161822976601401011021                  91                                                                 0000000000000000000000002586000000000000000000000000000000000000000000                              00000000000000               3
02201006  010    AL 161822976601401011021                  91 0000000000000000000000000000000000000000000000000000000000000000000000000000000000000                                                                                                            4
01001006  010    AL 161823477501401011021 1Chham                                                       Vanna                                             D  50321 Brühl                    Am Römerkanal 20                      05051959D  01                11
01001006  010    AL 161823477501401011021 00000000188847948                                                                                                 100049 02232 29439                                                                      29   0000002
01001006  010    AL 161823477501401011021 51vannak.s.ch@gmail.com                                                                                                                                                                   01                         3
01001006  010    AL 161823477501401011021                                                                                                                                                                                                                      4
01001006  010    AL 161823477501401011021                                                                                                       00000000                                                                             00000000                  5
01001006  010    AL 161823477501401011021 1Chham                                                       Vanna                                             D  50321 Brühl                    Am Römerkanal 20                      05051959D  09                11
01001006  010    AL 161823477501401011021 00000000188847948                                                                                                 100049 02232 29439                                                                      29   0000002
01001006  010    AL 161823477501401011021 51vannak.s.ch@gmail.com                                                                                                                                                                   01                         3
01001006  010    AL 161823477501401011021                                                                                                                                                                                                                      4
01001006  010    AL 161823477501401011021                                                                                                       00000000                                                                             00000000                  5
02001006  010    AL 161823477501401011021 201102018011020260110202696  0000000000        00000000100000         EUR000000000000                             F100000000188847948                   01000019092018     0003353468891                 EUR0        1
02001006  010    AL 161823477501401011021                   LE   000000000000000000AL-1618234775                                     000000000000002102018                                                                                                     2
02101006  010    AL 161823477501401011021  EUR 000000000000000 0                                                            00000 00000   00000000000000000000100000000000000000000000000000000 00000000                                                       1
02101006  010    AL 161823477501401011021  10000000000                                    000000AZ Privat-Rente     541                                                                                                        00000000                        2
02201006  010    AL 161823477501401011021                  0 Chham                         Vanna                         050519591000                              100000000                                  000000009900000000                00000000       1
02201006  010    AL 161823477501401011021                  210110201801102026010620200081000000000000RSKU2U              6907112025 000000  0000000000000000000000226122025000000000011020262110000000007680000002000000000000000000000000  06759 000000000    1
02201006  010    AL 161823477501401011021                  210000000000000000000000000000000000081                              00000000                               00000000000000000000                              000000000000000000000000000000000000  2
02201006  010    AL 161823477501401011021                  21                                   0000000000000000000000000000 00000000000000000000000000000000000000000009120000000002335411202500000000000000                                                  3
01001006  010    AL 162160461901401011021 3Autoservice Klaus Stehling UG                                                                                 D  50226 Frechen                  Dr.-Gottfried-Cremer-Allee 18         00000000   01                01
01001006  010    AL 162160461901401011021 00000000178308545                                                                                                 420049 02234 2797038  210049 02234 2797037                                              19   0000002
01001006  010    AL 162160461901401011021                                                                                                                                                                                           99                         3
01001006  010    AL 162160461901401011021                                                                                                                                                                                                                      4
01001006  010    AL 162160461901401011021                                                                                                       00000000                                                                             00000000                  5
01001006  010    AL 162160461901401011021 1Maibach                                                     Andrej                                            D  50226 Frechen                  Minzestr. 40                          09121976   09                11
01001006  010    AL 162160461901401011021 00000000191358526                                                                                                 100049 02234 695815   310049 0178 3070954                                               19   0000002
01001006  010    AL 162160461901401011021                                                                                                                                                                                           01                         3
01001006  010    AL 162160461901401011021                                                                                                                                                                                                                      4
01001006  010    AL 162160461901401011021                                                                                                       00000000                                                                             00000000                  5
01001006  010    AL 162160461901401011021 3Autoservice Klaus Stehling UG                                                                                 D  50226 Frechen                  Dr.-Gottfried-Cremer-Allee 18         00000000   03                01
01001006  010    AL 162160461901401011021 00000000178308545                                                                                                 420049 02234 2797038  210049 02234 2797037                                              19   0000002
01001006  010    AL 162160461901401011021                                                                                                                                                                                           99                         3
01001006  010    AL 162160461901401011021                                                                                                                                                 COLSDE33XXX           DE62370501981931170359                         4
01001006  010    AL 162160461901401011021                                                                                                       00000000                                                                             00000000                  5
02001006  010    AL 162160461901401011021 201012019010120390101202681  0000000000        00000000100000         EUR000000002000                             F100000000178308545                   14000013122018     0003355193371                 EUR0        1
02001006  010    AL 162160461901401011021                   LE   000000000000002000AL-1621604619                                     000000000000015012019                                                                                                     2
02101006  010    AL 162160461901401011021  EUR 000000000000000 0                                                            00000 00000   00000000000000000000100000000000000000000000000000000 00000000                                                       1
02101006  010    AL 162160461901401011021 210106201600                                    000000AZ Privat-Rente     221                                                                                                        00000000                        2
02201006  010    AL 162160461901401011021                  0 Maibach                       Andrej                        091219761000                              100000000                                  000000009900000000                00000000       1
02201006  010    AL 162160461901401011021                  910101201901012039010120220204000000002000RFKU1U.GD           1906122025  00000  0000000000000000000000144875012026000000000000010120392100000000153240000004700000000000000000000000000  06242 0   1
02201006  010    AL 162160461901401011021                  910000000000000000000200000000000000081                              00000000                               000000000000000000000000000000000000000000000000000000000000000000000000000000000       2
02201006  010    AL 162160461901401011021                  91                                                                 0000000000000000000000002419000000000000000000000000000000000000000000                              00000000000000               3
02201006  010    AL 162160461901401011021                  91 0000000000000000000000000000000000000000000000000000000000000000000000000000000000000                                                                                                            4
01001006  010    AL 924963825401401011021 1Metten                                                      Michael                       Dr.                 D  51467 Bergisch Gladbach        Romaneyer Höhe 12                     08111980D  01                11
01001006  010    AL 924963825401401011021 00000000121637294                                                                                                 310049 0173 7335544                                                                     29   0000002
01001006  010    AL 924963825401401011021 51michaelmetten@metten.de                                                                                                                                                                 01                         3
01001006  010    AL 924963825401401011021                                                                                                                                                                                                                      4
01001006  010    AL 924963825401401011021                                                                                                       00000000                                                                             00000000                  5
01001006  010    AL 924963825401401011021 1Metten                                                      Michael                       Dr.                 D  51467 Bergisch Gladbach        Romaneyer Höhe 12                     08111980D  09                11
01001006  010    AL 924963825401401011021 00000000121637294                                                                                                 310049 0173 7335544                                                                     29   0000002
01001006  010    AL 924963825401401011021 51michaelmetten@metten.de                                                                                                                                                                 01                         3
01001006  010    AL 924963825401401011021                                                                                                                                                                                                                      4
01001006  010    AL 924963825401401011021                                                                                                       00000000                                                                             00000000                  5
02001006  010    AL 924963825401401011021 201062022010620470106202696  0000000000        00000000100000         EUR000000000000                             P100000000121637294                   22000024052022                                   EUR0        1
02001006  010    AL 924963825401401011021                   LE   000000000000000000AL-9249638254                                     000000000000003062022                                                                                                     2
02101006  010    AL 924963825401401011021  EUR 000000000000000 3                                                            00000 00000   00000000000000000000100000000000000000000000000000000 00000000                                                       1
02101006  010    AL 924963825401401011021  00000000000                                    000000AZ Privat-Rente      4                                                                                                         00000000                        2
02201006  010    AL 924963825401401011021                  0 Metten                        Michael                       081119801000                              100000000                                  000000009900000000                00000000       1
02201006  010    AL 924963825401401011021                  910106202201062047010220240254000000000000STRF1U              6C03122025  00000  0000000000000000000002267143012026000000000000010620472800000000000000000000000000000000000000000000000  06742 0   1
02201006  010    AL 924963825401401011021                  910000000000000000000000000000000000081                              00000000                               000000000000000000000106202200000000000000000000000000000000000000000000000000000       2
02201006  010    AL 924963825401401011021                  91                                                                 0000000000000000000000002537000000000000000000000000000000000000000000                              00000000000000               3
02201006  010    AL 924963825401401011021                  91 0000000000000000000000000000000000000000000000000000000000000000000000000000000000000                                                                                                            4
02301006  010    AL 924963825401401011021                  910001                IE00BKM4GZ66iShares Core MSCI EM IMI UCITS ETF USD (Acc)       00000082730034011220250150000                                                                                  1
02301006  010    AL 924963825401401011021                  910002                IE00B4L5Y983iShares Core MSCI World ETF USD Acc                00000144269113011220250700000                                                                                  1
02301006  010    AL 924963825401401011021                  910003                IE00B5BMR087iShares Core S&P 500 UCITS ETF                     00000005636767011220250150000                                                                                  1
01001006  010    AL 924963930101401011021 1Metten                                                      Michael                       Dr.                 D  51467 Bergisch Gladbach        Romaneyer Höhe 12                     08111980D  01                11
01001006  010    AL 924963930101401011021 00000000121637294                                                                                                 310049 0173 7335544                                                                     19   0000002
01001006  010    AL 924963930101401011021 51michaelmetten@metten.de                                                                                                                                                                 01                         3
01001006  010    AL 924963930101401011021                                                                                                                                                                                                                      4
01001006  010    AL 924963930101401011021                                                                                                       00000000                                                                             00000000                  5
01001006  010    AL 924963930101401011021 1Metten                                                      Michael                       Dr.                 D  51467 Bergisch Gladbach        Romaneyer Höhe 12                     08111980D  09                11
01001006  010    AL 924963930101401011021 00000000121637294                                                                                                 310049 0173 7335544                                                                     19   0000002
01001006  010    AL 924963930101401011021 51michaelmetten@metten.de                                                                                                                                                                 01                         3
01001006  010    AL 924963930101401011021                                                                                                                                                                                                                      4
01001006  010    AL 924963930101401011021                                                                                                       00000000                                                                             00000000                  5
01001006  010    AL 924963930101401011021 3Metten Stein U.Design GmbH und Co.KG                                                                          D  51491 Overath                  Hammermühle 24                        00000000   03                01
01001006  010    AL 924963930101401011021 00000000039174097                                                                                                 200049 02206 60361    420049 02206 60375                                                19   0000002
01001006  010    AL 924963930101401011021                                                                                                                                                                                           99                         3
01001006  010    AL 924963930101401011021                                                                                                                                                 GENODED1PAF           DE63370626004027875012                         4
01001006  010    AL 924963930101401011021                                                                                                       00000000                                                                             00000000                  5
02001006  010    AL 924963930101401011021 201062022010620470106202681  0000000000        00000000100000         EUR000000179432                             P100000000121637294                   22000023052022                                   EUR0        1
02001006  010    AL 924963930101401011021                   LE   000000000000179432AL-9249639301                                     000000000000024052022                                                                                                     2
02101006  010    AL 924963930101401011021  EUR 000000000000000 3                                                            00000 00000   00000000000000000000100000000000000000000000000000000 00000000                                                       1
02101006  010    AL 924963930101401011021  00000000000                                    000000AZ Ruerup           74                                                                                                         00000000                        2
02201006  010    AL 924963930101401011021                  0 Metten                        Michael                       081119801000                              100000000                                  000000009900000000                00000000       1
02201006  010    AL 924963930101401011021                  910106202201062047010620250254000000179432STBVRF1U            1C28112025  00500 90000000000000000000000000000000000000000000000010620472400000000000000000000000000000000000000000000000  06742 0   1
02201006  010    AL 924963930101401011021                  910000000000000000017943200000000000081                              00000000                               000000000000000000000106202200000000000000000000000000000000000000000000000000000       2
02201006  010    AL 924963930101401011021                  91                                                                 0000000000000000000000002108000000000000000000000000000000000000000000                              00000000000000               3
02201006  010    AL 924963930101401011021                  91 0000000000000000000000000000000000000000000000000000000000000000000000000000000000000                                                                                                            4
02301006  010    AL 924963930101401011021                  910001                IE00BKM4GZ66iShares Core MSCI EM IMI UCITS ETF USD (Acc)       00000313099743031120250150000                                                                                  1
02301006  010    AL 924963930101401011021                  910002                IE00B4L5Y983iShares Core MSCI World ETF USD Acc                00000513036157031120250700000                                                                                  1
02301006  010    AL 924963930101401011021                  910003                IE00B5BMR087iShares Core S&P 500 UCITS ETF                     00000019755100031120250150000                                                                                  1
99990000000161401011021 00000000381499200000000000000 00000000000000 00000000000000+00000000000000+                                                                                                                                                             
